:020000040000FA
:060000000A128A11E32F31
:10001400F000831203130C1E102811280B287008FB
:100024009900080001300A168A110B240A128A1159
:100034000830F400C930F300F30B1E28F40B1E281B
:10004400232808008312031328088039B2002808E3
:10005400AD002D07B800A71F3028312832283814E6
:1000640038080319362837284628380A031D3B2840
:100074003C2844280030A8000030A7000030A60027
:100084000030A500A7174E280030A8000030A700B4
:100094000030A6000030A5002C088039AD002D08E2
:1000A400B2062C08AD002D07B300AB1F5A285B28FD
:1000B4005C28331433080319602861287028330A34
:1000C400031D652866286E280030AC000030AB00A4
:1000D4000030AA000030A900AB1778280030AC002B
:1000E4000030AB000030AA000030A9003308031927
:1000F4007C287D2882283808031D812882288B28A3
:100104000030A8000030A7000030A6000030A50091
:10011400682B2508F0002B080A168A1188230A1276
:100124008A11710883120313BE007008BD003D08D4
:10013400AD00AE01AF01B0013008B7002F08B60022
:100144002E08B5002D08B4003E08AD00AE01AF0185
:10015400B0013008BC002F08BB002E08BA002D08DF
:10016400B9002608F0002A080A168A1188230A1200
:100174008A11710883120313BE007008BD003D0884
:10018400AD00AE01AF01B0012D08B4072E08031174
:100194000318013E0319CF28B5072F0803110318CC
:1001A400013E0319D628B607300803110318013E8F
:1001B4000319DD28B7073E08AD00AE01AF01B00159
:1001C4002D08B9072E0803110318013E0319EB2863
:1001D400BA072F0803110318013E0319F228BB07BD
:1001E400300803110318013E0319F928BC07270836
:1001F400F00029080A168A1188230A128A11710844
:1002040083120313BE007008BD003D08AD00AE01AB
:10021400AF01B0012D08B4072E0803110318013EE5
:1002240003191529B5072F0803110318013E0319F3
:100234001C29B607300803110318013E03192329AA
:10024400B7073E08AD00AE01AF01B0012D08B907F4
:100254002E0803110318013E03193129BA072F0888
:1002640003110318013E03193829BB073008031191
:100274000318013E03193F29BC070830AD000310E1
:10028400B40DB50DB60DB70DAD0B41292608F00020
:1002940029080A168A1188230A128A1171088312FE
:1002A4000313BE007008BD003D08AD003E08AE005B
:1002B400AF01B0012D08B4072E0803110318013E45
:1002C40003196529B5072F0803110318013E031903
:1002D4006C29B607300803110318013E031973296A
:1002E400B7072508F0002A080A168A1188230A127B
:1002F4008A11710883120313BE007008BD003D0803
:10030400AD003E08AE00AF01B0012D08B4072E08C1
:1003140003110318013E03199029B5072F0803118F
:100324000318013E03199729B6073008031103186F
:10033400013E03199E29B7070830AD000310B40D20
:10034400B50DB60DB70DAD0BA0292508F000290891
:100354000A168A1188230A128A1171088312031358
:10036400BE007008BD003D08AD003E08AE00AF0100
:10037400B0012D08B4072E0803110318013E031918
:10038400C429B5072F0803110318013E0319CB290B
:10039400B607300803110318013E0319D229B70721
:1003A4002608F0002B080A168A1188230A128A11DB
:1003B400710883120313BE007008BD003D08AD0030
:1003C4003E08AE00AF01B0012D08B9072E08031195
:1003D4000318013E0319EF29BA072F080311031864
:1003E400013E0319F629BB07300803110318013E27
:1003F4000319FD29BC072708F0002A080A168A11E8
:1004040088230A128A11710883120313BE0070082C
:10041400BD003D08AD003E08AE00AF01B0012D089F
:10042400B9072E0803110318013E03191A2ABA0743
:100434002F0803110318013E0319212ABB073008B2
:1004440003110318013E0319282ABC072708F000EA
:100454002B080A168A1188230A128A11710883123A
:100464000313BE007008BD003D08AD003E08AE0099
:10047400AF01B00108300310AD0DAE0DAF0DB00DDE
:10048400FF3E031D3D2A2D08B9072E08031103184A
:10049400013E03194E2ABA072F0803110318013E1F
:1004A4000319552ABB07300803110318013E031929
:1004B4005C2ABC073408AD003508AE003608AF002E
:1004C4003708B00018300310B00CAF0CAE0CAD0CF4
:1004D400FF3E031D652A2D08B9072E0803110318D2
:1004E400013E0319762ABA072F0803110318013EA7
:1004F40003197D2ABB07300803110318013E0319B1
:10050400842ABC070830AD000310B40DB50DB60D38
:10051400B70DAD0B862A38083307AD00AE01AE0D1A
:100524002D08823EBD002E080318013EFF3EBE008A
:10053400B82A0130AD000310B90DBA0DBB0DBC0DC6
:10054400AD0B9D2AB71FA72AA82AA92A391401305E
:10055400AD000310B40DB50DB60DB70DAD0BAB2A40
:10056400FF30BD070318BE0AFF30BE07BB1FBB2AFE
:10057400BC2A9B2AB301B71FC02AC12ADD2AFF3037
:100584003405AD00FF303505AE00FF303605AF0051
:100594007F303705B00030082F042E042D040319D2
:1005A400D42AD52AD82AB301B30ADD2A391CDB2A76
:1005B400DC2ADD2AD52A33080319E12AE22A132B7F
:1005C4000130B907003003180130BA0700300318AE
:1005D4000130BB07003003180130BC073C1CF32A70
:1005E400F42A132B3908AD003A08AE003B08AF00DB
:1005F4003C08B0000130B100300DB00CAF0CAE0CB3
:10060400AD0CB10BFE2A3008BC002F08BB002E082D
:10061400BA002D08B9000130BD070318BE0A003026
:10062400BE073E08803AFF0080307F02031D1C2B6A
:10063400FF303D02031C1F2B202B2B2B7F308312FA
:100644000313BC008030BB000030BA000030B90096
:100654005C2B831203133E08803AFF0080307F0234
:10066400031D362B01303D020318392B3A2B462B40
:10067400003083120313BC000030BB000030BA000A
:100684000030B900B2015C2B831203133D08B8009B
:10069400FF30B905FF30BA057F30BB050030BC051B
:1006A400381C552B562B572BBB173808AD0003109D
:1006B4002D0CBC003208AD002D08BC043C08A80079
:1006C4003B08A7003A08A6003908A50008007130C5
:1006D400831603138F000A168A11AF230A128A1194
:1006E4008316031388018901051401308316031747
:1006F4008800831603138714071487159F171F1286
:100704009F12C330831203139F051F083F394038DB
:100714009F001F141F3083160313C1007130C000E3
:100724001D30BF00BF0B942BC00B942BC10B942B1B
:100734009B2BF5016E30F6008030F70001300A166D
:100744008A113C230A128A11153083160313C1003F
:100754004B30C000BD30BF00BF0BAE2BC00BAE2B67
:10076400C10BAE2BB52B0A128A1114200A128A115E
:1007740083120313890188010030A9000030A80006
:100784002530A7008030A6000A168A11B1240A1267
:100794008A112F30F1008030F2000A168A11622388
:1007A4000A128A11831203139F149F18DA2BDB2B6E
:1007B400D72B1E0883160313BF00C0013F088316FE
:1007C4000317C40083160313400883160317C500D8
:1007D400440883160313C000BF011E083F07C1006D
:1007E4000030031801304007C20041088316031784
:1007F400C40083160313420883160317C500440874
:10080400F0004508F100F201F30100300A128A15E4
:100814000C200A128A11730883160317C300720886
:10082400C2007108C1007008C0004430831603136D
:10083400A7007F30A600C030A5000030A4008316B6
:100844000317430883160313A300831603174208F0
:1008540083160313A2008316031741088316031398
:10086400A10083160317400883160313A0000A1679
:100874008A1187250A128A11831603132308AB00F1
:100884002208AA002108A9002008A8000A168A1133
:1008940033260A128A11831603132B0883160317AF
:1008A400A700831603132A0883160317A6008316CA
:1008B4000313290883160317A500831603132808B6
:1008C40083160317A400C13083120313DC00203005
:1008D400DB000030DA000030D90083160317270844
:1008E400F3002608F2002508F1002408F000013086
:1008F4000A128A150C200A128A1173088312031330
:10090400C2007208C1007108C0007008BF00463000
:10091400C6002030C5002830C4000030C3000A12CD
:100924008A15D5230A128A11831203134208E000A0
:100934004108DF004008DE003F08DD000A128A1586
:10094400A8250A128A11831203135C08831603175D
:10095400AB00831203135B0883160317AA008312E8
:1009640003135A0883160317A900831203135908A3
:1009740083160317A800413083120313C2002030EA
:10098400C1000030C0000030BF00831603172B08DD
:1009940083120313C600831603172A088312031352
:1009A400C50083160317290883120313C400831692
:1009B4000317280883120313C3000A128A15D523C8
:1009C4000A128A1183120313420883160313B30015
:1009D40083120313410883160313B2008312031313
:1009E400400883160313B100831203133F088316D0
:1009F4000313B0000A128A158F220A128A11831671
:100A04000313330883160317AF0083160313320846
:100A140083160317AE0083160313310883160317D6
:100A2400AD0083160313300883160317AC0041305E
:100A340083120313DC005B30DB009830DA00EA3009
:100A4400D900831603172F0883120313E0008316BB
:100A540003172E0883120313DF00831603172D08D0
:100A640083120313DE00831603172C088312031367
:100A7400DD000A128A15A8250A128A1183120313AB
:100A84005C08C2005B08C1005A08C0005908BF00D6
:100A94004530C6007F30C500A030C4000030C3001C
:100AA4000A128A15D5230A128A11831203134208E3
:100AB40083160317B3008312031341088316031725
:100AC400B20083120313400883160317B100831284
:100AD40003133F0883160317B000C33083120313B4
:100AE400DC008830DB008030DA000030D900831667
:100AF4000317330883120313E00083160317320825
:100B040083120313DF0083160317310883120313C0
:100B1400DE0083160317300883120313DD000A1264
:100B24008A15A8250A128A11831203135C088316F6
:100B34000317BF00831203135B0883160317BE0059
:100B4400831203135A0883160317BD008312031379
:100B5400590883160317BC00863083160313B000AC
:100B6400831603173F0883160313AB00831603177A
:100B74003E0883160313AA00831603173D08831641
:100B84000313A900831603173C0883160313A80054
:100B94000A168A1133260A128A11831603132908A6
:100BA400B2002808B100DF30B3000030B400903048
:100BB4000A128A159E210A128A11F501A230F60042
:100BC4008030F70001300A168A113C230A128A1178
:100BD4009030F3000130F4000A168A1116230A1229
:100BE4008A119F30F3008030F4000A168A1116230C
:100BF4000A128A119030F0000130F10010300A1608
:100C04008A11F1220A128A11A530F0008030F10015
:100C140010300A168A11D9230A128A118312031377
:100C2400871C152E162E402E9430F0008030F100D3
:100C3400B4300A168A11F1220A128A110B30F50017
:100C4400B430F6000130F70001300A168A113C2353
:100C54000A128A11023083120313890003308316A7
:100C64000313C1000830C0007630BF00BF0B382E1C
:100C7400C00B382EC10B382E00005A2E8718432E75
:100C8400442E5A2E9030F0008030F100B4300A1611
:100C94008A11F1220A128A110B30F500B430F600E1
:100CA4000130F70001300A168A113C230A128A1116
:100CB400B430F0000130F10010300A168A11D92343
:100CC4000A128A11A530F0008030F10010300A16A3
:100CD4008A11D9230A128A11831203130718732E57
:100CE400742E9D2E7F30F0008030F1009A300A1669
:100CF4008A11F1220A128A11F5019A30F6000130A4
:100D0400F70002300A168A113C230A128A110130B4
:100D1400831203138900033083160313C1000830C0
:100D2400C0007630BF00BF0B952EC00B952EC10BB3
:100D3400952E0000B62E071CA02EA12EB62E7C30B8
:100D4400F0008030F1009A300A168A11F1220A125A
:100D54008A11F5019A30F6000130F70002300A16C4
:100D64008A113C230A128A119A30F0000130F100F2
:100D740010300A168A11D9230A128A11A530F000FC
:100D84008030F10010300A168A11D9230A128A1110
:100D940083120313871DCF2ED02EFA2E8C30F00031
:100DA4008030F100B8300A168A11F1220A128A1131
:100DB4000B30F500B830F6000130F70002300A16A7
:100DC4008A113C230A128A11043083120313890006
:100DD400033083160313C1000830C0007630BF000F
:100DE400BF0BF22EC00BF22EC10BF22E0000142FFB
:100DF4008719FD2EFE2E142F9830F0008030F1005C
:100E0400B8300A168A11F1220A128A110B30F50041
:100E1400B830F6000130F70002300A168A113C237C
:100E24000A128A11B830F0000130F10010300A16AD
:100E34008A11D9230A128A119C30F0008030F10003
:100E440010300A168A11D9230A128A11831603173D
:100E54003F08F3003E08F2003D08F1003C08F000B2
:100E64004130F700F030F6000030F5000030F400B7
:100E74000A168A115E270A128A110318422F432F79
:100E8400572F04308312031388001530831603137D
:100E9400C1004B30C000BD30BF00BF0B4F2FC00B93
:100EA4004F2FC10B4F2F562FAB2F831603173F081D
:100EB400F3003E08F2003D08F1003C08F000413028
:100EC400F700F030F6000030F5000030F4000A16A8
:100ED4008A115E270A128A11031C712F722FAB2FFD
:100EE4000130831203138900033083160313C100F6
:100EF4000830C0007630BF00BF0B7E2FC00B7E2FA2
:100F0400C10B7E2F000002308312031389000330CB
:100F140083160313C1000830C0007630BF00BF0B36
:100F2400912FC00B912FC10B912F0000043083121D
:100F340003138900033083160313C1000830C00073
:100F44007630BF00BF0BA42FC00BA42FC10BA42F5E
:100F54000000153083160313C1004B30C000BD30B0
:100F6400BF00BF0BB32FC00BB32FC10BB32FBA2FCE
:100F74009F30F3008030F4000A168A1116230A12F7
:100F84008A111030F1000130F2000A168A1162232E
:100F94000A128A110B3083160313C1002630C000D5
:100FA4005D30BF00BF0BD42FC00BD42FC10BD42F87
:100FB4000A128A1114200A128A11D42B0A128A11D5
:100FC400002883120313EF0183160313C301C40122
:100FD400C50183160317C001C101C201C301C401C5
:100FE400C50183171030840042300A128A15042088
:0C0FF4000A128A1183010A128A11692B6B
:1010080064008001840A04060319003404060528D4
:10101800F80078080319112812282628F31F152824
:10102800162826287009FA007109FB007209FC00CD
:101038007309FD00FA0A0319FB0A0319FC0A0319CC
:10104800FD0A2E287308FD007208FC007108FB00D9
:101058007008FA007308720471047004031D3528BF
:1010680036283F280030F3000030F2000030F1004D
:101078000030F000C3289630F9004F280130F40002
:101088007408F90701300310FD0CFC0CFB0CFA0C7A
:10109800FF3E031D4728FE307D05031D54285528B3
:1010A800422871280130F4007408F9070130FA0762
:1010B800003003180130FB07003003180130FC072B
:1010C800003003180130FD0701300310FD0CFC0C43
:1010D800FB0CFA0CFF3E031D6928FF307D05031D3C
:1010E80076287728562883280130F9020130F40041
:1010F8000310FA0DFB0DFC0DFD0DF40B7C28FC1BF9
:10110800862887288D280230790203188C288D2894
:1011180078287918902891289928FF30FA05FF3007
:10112800FB057F30FC05FF30FD050310F90C79083D
:10113800F400F501F601F70118300310F40DF50D70
:10114800F60DF70DFF3E031DA1287408FA04750873
:10115800FB047608FC047708FD0478080319B52811
:10116800B628BB28F31FB928BA28BB28FD177D0865
:10117800F3007C08F2007B08F1007A08F000080010
:10118800831603132508A70001300310A70DFF3E9F
:10119800031DC9280310270D240784000A168A1185
:1011A8000A200A128A15A8000A168A110A200A12A9
:1011B8008A15A9000A168A110A200A128A15AA0095
:1011C8000A168A110A200A128A15AB002B08AF00EA
:1011D8002A08AE002908AD002808AC008F29FF3086
:1011E800A5070318A60AFF30A6072508A70001309F
:1011F8000310A70DFF3E031DFC280310270D24072D
:1012080084000A168A110A200A128A15A8000A16EA
:101218008A110A200A128A15A9000A168A110A20B8
:101228000A128A15AA000A168A110A200A128A15B1
:10123800AB002B0883120313DC00831603132A0860
:1012480083120313DB008316031329088312031385
:10125800DA0083160313280883120313D9008316B0
:1012680003132F0883120313A800831603132E08F1
:1012780083120313A700831603132D088312031385
:10128800A600831603132C0883120313A5008316E4
:101298000313230883120313AC00831603132208D5
:1012A80083120313AB00831603132108831203135D
:1012B800AA0083160313200883120313A9000A1235
:1012C8008A1124200A128A15831203132808E000C1
:1012D8002708DF002608DE002508DD000A128A1527
:1012E800A8250A128A15831203135C0883160313B0
:1012F800AF00831203135B0883160313AE00831237
:1013080003135A0883160313AD00831203135908F5
:1013180083160313AC0025082604031D9429952978
:10132800F3282F08A3002E08A2002D08A1002C08DE
:10133800A000080083160313BD00B130BA007A2A52
:1013480025303E060319A929AA29B4293D08840095
:101358003E08831780000130B5003508BD077A2A9A
:10136800B801C9293A08840083130008BE00023076
:10137800B5003508BA073D0884003E088317800089
:101388000130B5003508BD077A2A0130B007FF30B3
:10139800300784000A168A110A200A128A15BE002C
:1013A800B500B6013608003A0319DB29BF2935080C
:1013B800003A03198A2A633A0319B629073A031926
:1013C800E9290D3A0319E929BF293A08840083134A
:1013D8000008BB00840A0008BC000230B5003508CC
:1013E800BA07BC1FF829F929022A0330B5003508C5
:1013F800B804BB09BC09BB0A0319BC0ABE01BE0A72
:101408003E08B5003507013E84000A168A110A20F5
:101418000A128A15B6000A168A110A200A128A15B3
:10142800B70037083C02031D1B2A36083B02031885
:101438001E2A1F2A202A2A2A0130B5003508BE078D
:1014480005303E06031D292A2A2A042A38080339AA
:1014580003192F2A302A392A3D0884002D30831792
:1014680080000130B5003508BD073E08B900712A73
:101478000A30F8000030F9003908B5003507013E98
:1014880084000A168A110A200A128A15F0000A1620
:101498008A110A200A128A15F1003C08F3003B0859
:1014A800F2000A168A11F5240A128A157108FB003F
:1014B8007008FA000A168A1177240A128A15780821
:1014C800303E83160313BE003D0884003E08831790
:1014D80080000130B5003508BD07FF30B50035087C
:1014E800B907390A031D792A7A2A3C2A0130B0073C
:1014F800FF30300784000A168A110A200A128A155A
:10150800BE003E08031D892A8A2AA4293D088400B2
:10151800831780010800831603133308F300320889
:10152800F2003108F1003008F0000030F700003018
:10153800F6000030F5000030F4000A168A115E2724
:101548000A128A150318A92AAA2AB92A2130831649
:101558000313C3000030C4000030B3000030B200F1
:101568000030B1000030B000D42B831603133308C9
:10157800F3003208F2003108F1003008F0000030C2
:10158800F7000030F6000030F5000030F4000A16CD
:101598008A1139250A128A15031CD32AD42AE32A68
:1015A800223083160313C3000030C4000030B30098
:1015B8000030B2000030B1000030B000D42BBF3092
:1015C80083120313DC008030DB000030DA000030C7
:1015D800D9004030A8000030A7000030A600003035
:1015E800A5006D30A4008316031333088312031378
:1015F800A30083160313320883120313A200831671
:101608000313310883120313A10083160313300850
:1016180083120313A0000A168A11D7250A128A1505
:10162800831203132308AC002208AB002108AA0088
:101638002008A9000A128A1124200A128A15831286
:1016480003132808E0002708DF002608DE00250825
:10165800DD000A128A15A8250A128A1583120313B7
:101668005C0883160313B300831203135B08831605
:101678000313B200831203135A0883160313B1002D
:1016880083120313590883160313B000FF30831223
:101698000313ED070318EE0AFF30EE078316031352
:1016A8003308A3003208A2003108A1003008A000C6
:1016B8000B30A4000830A5000030A6000A128A15D5
:1016C800C4200A128A15831603132308B3002208BC
:1016D800B2002108B1002008B000330883120313B8
:1016E800DC0083160313320883120313DB0083160E
:1016F8000313310883120313DA0083160313300827
:1017080083120313D9003F30A8003130A70072308C
:10171800A6001830A5006D08F0006E08F100003032
:10172800F11BFF30F200F30001300A128A150C2079
:101738000A128A15730883120313AC007208AB00EF
:101748007108AA007008A9000A128A1124200A1236
:101758008A15831203132808E0002708DF002608EB
:10176800DE002508DD000A128A15A8250A128A1546
:10177800831203135C0883160313B3008312031345
:101788005B0883160313B200831203135A088316E7
:101798000313B10083120313590883160313B0000F
:1017A80008008312031346088039D0004608C70092
:1017B8004707D700C51FE12BE22BE32B5714570827
:1017C8000319E72BE82BF82B570A031DEC2BED2BFD
:1017D800F52B0030C6000030C5000030C4000030D2
:1017E800C300C517C601002C0030C6000030C50074
:1017F8000030C4000030C30042088039C7004708E1
:10180800D0064208C7004707D800C11F0C2C0D2C72
:101818000E2C581458080319122C132C232C580A70
:10182800031D172C182C202C0030C2000030C100DA
:101838000030C0000030BF00C117C2012B2C00309F
:10184800C2000030C1000030C0000030BF004208B4
:10185800410440043F04031D322C332C4C2C00302F
:10186800C6000030C5000030C4000030C30080301E
:10187800C5047F30C6045008C7004708C604460898
:10188800C2004508C1004408C0004308BF00A72D96
:101898005708031D502C512C5A2C0030C200003020
:1018A800C1000030C0000030BF00A72D5708C70096
:1018B800C8014808CA0058084702C900031CCA03DF
:1018C80049087F3ED1004A080318013E003ED20075
:1018D8004608CF004508CE004408CD004308CC0098
:1018E8000030C6000030C5000030C4000030C3001E
:1018F8000030D6000030D5000030D4000030D300CE
:10190800D801D02C580803198A2C8B2CAB2C013009
:10191800C7000310CC0DCD0DCE0DCF0DC70B8D2CF0
:101928000130C7000310C30DC40DC50DC60DC70B8C
:10193800962CD61FA02CA12CA22C43140130C70032
:101948000310D30DD40DD50DD60DC70BA42C42080A
:101958004F02031DB92C41084E02031DB92C400843
:101968004D02031DB92C3F084C02031CBC2CBD2C96
:10197800CC2C56173F08CC024008031C400FCD0260
:101988004108031C410FCE024208031C420FCF023C
:101998000130C7004708D8071A305802031CD52C55
:1019A800D62C862C4F084E044D044C040319DD2C0C
:1019B800DE2CFD2C5314FD2C0130C7000310C30D81
:1019C800C40DC50DC60DC70BE22CD61FEC2CED2C93
:1019D800EE2C43140130C7000310D30DD40DD50DE0
:1019E800D60DC70BF02CFF30D1070318D20AFF30F1
:1019F800D207C51F002D012DE02CD801D61F052DBB
:101A0800062D222DFF305305C700FF305405C800AE
:101A1800FF305505C9007F305605CA004A084904F9
:101A2800480447040319192D1A2D1D2DD801D80A69
:101A3800222D431C202D212D222D1A2D5808031943
:101A4800262D272D582D0130C307003003180130EB
:101A5800C407003003180130C507003003180130EF
:101A6800C607461C382D392D582D4308C700440891
:101A7800C8004508C9004608CA000130CB004A0D15
:101A8800CA0CC90CC80CC70CCB0B432D4A08C6009E
:101A98004908C5004808C4004708C3000130D107F9
:101AA8000318D20A0030D2075208803AFF0080306B
:101AB8007F02031D612DFF305102031C642D652D2B
:101AC800732DFF3083120313D1000030D200003091
:101AD800C6000030C5000030C4000030C3008312C7
:101AE80003135208803AFF0080307F02031D7E2DC9
:101AF800013051020318812D822D8F2D831203137B
:101B0800D101D2010030C6000030C5000030C40049
:101B18000030C300D001831203135108D700571CAB
:101B2800962D972D992DC5179D2D7F30C7004708F5
:101B3800C5055708C7000310470CC6005008C70062
:101B48004708C604432C0800831203135C08803935
:101B5800E9005C08E1006107EB00DB1FB42DB52D3F
:101B6800B62D6B146B080319BA2DBB2DCB2D6B0A40
:101B7800031DBF2DC02DC82D0030DC000030DB0058
:101B88000030DA000030D900DB17DC01D32D00303B
:101B9800DC000030DB000030DA000030D9006008DB
:101BA8008039EA006A0869060319DB2DDC2DDD2D72
:101BB80069176008E1006107EA00DF1FE42DE52DE1
:101BC800E62D6A146A080319EA2DEB2DFB2D6A0A23
:101BD800031DEF2DF02DF82D0030E0000030DF0060
:101BE8000030DE000030DD00DF17E001032E00309A
:101BF800E0000030DF000030DE000030DD006B0860
:101C08006A020318082E092E2F2E691F0C2E0D2E7E
:101C1800112E8030E1006108E9066B08EC006A08C3
:101C2800EB006C08EA005908EC005D08D9006C0864
:101C3800DD005A08EC005E08DA006C08DE005B087C
:101C4800EC005F08DB006C08DF005C08EC00600853
:101C5800DC006C08E000EC016A08E100E2016208BF
:101C6800E4006B086102E300031CE4036408803AA3
:101C7800FF0080307F02031D432E1A306302031CCD
:101C8800462E472E7E2E831203135C085B045A04EB
:101C98005904031D502E522E0130532E0030EC00F3
:101CA8000030DC000030DB000030DA000030D90002
:101CB8006A08EB00862E6C1C622E632E6A2E6C0856
:101CC800E1000310610C0138EC006C2E0310EC0CE1
:101CD800591C6F2E702E712EEC170130E1005C0D2F
:101CE800DC0CDB0CDA0CD90CE10B732E0130E100B3
:101CF8006108EB07831203136A086B02031C852E25
:101D0800862E5F2E691B892E8A2ED32E6B08031D03
:101D18008E2E8F2E982E0030DC000030DB00003035
:101D2800DA000030D900FF2F5D08D9075E080311DB
:101D38000318013E0319A12EDA075F0803110318DF
:101D4800013E0319A82EDB07600803110318013EA2
:101D58000319AF2EDC075C1CB22EB32E872F6C1C28
:101D6800B62EB72EBE2E6C08E1000310610C0138A8
:101D7800EC00C02E0310EC0C591CC32EC42EC52E2B
:101D8800EC170130E1005C0DDC0CDB0CDA0CD90C33
:101D9800E10BC72E0130E1006108EB07872F5C08D3
:101DA800803AFF006008803A7F02031DE52E5F0835
:101DB8005B02031DE52E5E085A02031DE52E5D0831
:101DC80059020318E82EE92E412FFF30E100FF30B9
:101DD800E200FF30E300FF30E4005D08E5005E0844
:101DE800E6005F08E7006008E8005908E5025A08BD
:101DF800031C5A0F002F012FE6025B08031C5B0F20
:101E0800062F072FE7025C08031C5C0F0C2F0D2F11
:101E1800E8026508E10766080318660F142F152FF6
:101E2800E20767080318670F1A2F1B2FE3076808D4
:101E38000318680AE4076408DC006308DB0062082A
:101E4800DA006108D9008030E1006108E906EC0990
:101E5800EC0A6C08031D312F322F4F2F0130D907A0
:101E6800003003180130DA07003003180130DB07AF
:101E7800003003180130DC074F2F5D08D9025E08D7
:101E8800031C5E0FDA025F08031C5F0FDB026008A9
:101E9800031C600FDC025C085B045A045904031D30
:101EA800562F572F832F6C08031D5B2F5C2F832F12
:101EB8000030DC000030DB000030DA000030D900F0
:101EC800FF2F0130E1000310D90DDA0DDB0DDC0D19
:101ED800E10B672FEC1F712F722F732F59146C1C95
:101EE800762F772F7A2F0314EC0D7C2F0310EC0D2F
:101EF8006B080319802F812F832F0130EB02DB1F22
:101F0800862F872F652FEA01EC1F8B2F8C2F9A2F96
:101F18006C087F390319912F922F952FEA01EA0A4D
:101F28009A2F591C982F992F9A2F922F6A080319C4
:101F38009E2F9F2FD32F0130D9070030031801306F
:101F4800DA07003003180130DB07003003180130CE
:101F5800DC075C1CB02FB12FD32F5908E1005A08B9
:101F6800E2005B08E3005C08E4000130E500640D72
:101F7800E40CE30CE20CE10CE50BBB2F6408DC007D
:101F88006308DB006208DA006108D9006B0A0319EC
:101F9800CE2FCF2FD32F0130E1006108EB076B0A5A
:101FA8000319D72FD82FDD2F6B08031DDC2FDD2F4A
:101FB800EB2F0030DC000030DB000030DA000030AE
:101FC800D9006B08031DE92FEA2FEB2FE9016B1CE1
:101FD800EE2FEF2FF12FDB17F52F7F30E10061088F
:101FE800DB056B08E1000310610CDC00E91FFD2F25
:101FF800FE2FFF2FDC170800FF1B0A2883137F180A
:1020080083170008840A0319FF0A080010308A00A1
:102018000408840A82070034013400340A34003486
:1020280064340034E8340334103427340034003482
:1020380000340034C434FF347F343F348034EF3408
:10204800FF34BE349034E134A9343E34EC34823465
:102058007634BE348234AD342B343E340E343C34C2
:10206800C334BD348734D13413343D3441347834E7
:10207800D334BB343D343D343D343D343D343D34BC
:102088003D343D343D343D343D343D343D343D34C0
:102098003D34533449345334543445344D34413445
:1020A80020344434453420344D344F344E3449348C
:1020B80054344F34523445344F3420344434453446
:1020C80020345634453448344934433455344C3438
:1020D8004F343D343D343D343D343D343D343D345E
:1020E8003D343D343D343D343D343D343D343D3460
:1020F800003444344534543445344334543441343E
:102108004E3444344F342E342E342E3400344E346E
:102118004F342034433448344F34513455344534E3
:102128000034253464342534633443340034413472
:102138004334433400344E342D344734003453345C
:102148002D344734003453344534473400340D3487
:102158000A34003420342034003454343A340034FF
:042168002C340034DF
:1025E200F4007408F300FF2A0130F2007208F307C6
:1025F2000130F0070318F10A0030F1077108831265
:102602000313FF00700884000A168A1100200A16BC
:102612008A11F20073088400720883178000000890
:10262200031D142B152BF52A08002B2B7408FF0011
:10263200730884000A168A1100200A168A110A16E3
:102642008A1141240A168A110130F3070318F40A89
:102652000030F407740883120313FF007308840028
:102662000A168A1100200A168A11003A031D3A2B13
:102672003B2B172B0800F800023078020318422B7C
:10268200432B4E2B75080F398038F90079080A164A
:102692008A110B240A168A11582B75080F39C03873
:1026A200F90079080A168A110B240A168A1176088B
:1026B200F3007708F4000A168A1116230A168A1103
:1026C2000800772B7208FF00710884000A168A112D
:1026D20000200A168A110A128A110A200A168A1181
:1026E2000130F1070318F20A0030F2077208831270
:1026F2000313FF00710884000A168A1100200A16CB
:102702008A11003A031D862B872B632B0800F800E1
:10271200F401F5017008F200F3017208F600730883
:10272200F700781C952B962B9C2B7608F407031840
:10273200F50A7708F50701300310F60DF70DFF3E95
:10274200031D9D2B0310F80C7808031DA92BAA2B3F
:10275200922B7508F1007408F00008008316031329
:1027620088012730F400F530F300F30BB62BF40B9D
:10277200B62B02300A168A110B240A168A11283047
:102782000A168A110B240A168A1101300A168A11B6
:102792000B240A168A110C300A168A110B240A1607
:1027A2008A1106300A168A110B240A168A110800A9
:1027B200F4007408F300E12B0130F2007208F30711
:1027C2007308840083170008031DE82BE92BDD2B17
:1027D200F42B0130F2007208F3070130F0070318FE
:1027E200F10A0030F107710883120313FF00700829
:1027F20084000A168A1100200A168A11F200730850
:1028020084007208831780000008031D092C0A2C1B
:10281200EA2B0800F200F0307205F0008312031375
:1028220008080F3970048800081088140000831209
:10283200031388100330F1009730F000F00B1F2CC7
:10284200F10B1F2C242C7208F00004300310F00D41
:10285200FF3E031D272C8312031308080F3970044F
:102862008800881400008312031388100830F100D6
:10287200C930F000F00B3B2CF10B3B2C402C080034
:10288200F200F0307205F0008312031308080F39CA
:10289200700488000814881400008312031388103F
:1028A2000330F1009730F000F00B552CF10B552C52
:1028B2005A2C7208F00004300310F00DFF3E031D85
:1028C2005D2C8312031308080F39700488008814E2
:1028D20000008312031388100830F100C930F000A1
:1028E200F00B712CF10B712C762C0800780879040E
:1028F20003197C2C7D2CAC2CFD01FD0A8B2C0130A4
:102902000310F80DF90DFF3E031D812C0130FC0070
:102912007C08FD07F91F8E2C8F2C802C79087B02F6
:10292200031D952C78087A02031C982C992C9F2C55
:102932007808FA027908031CFB03FB02013003103A
:10294200F90CF80CFF3E031DA02C0130FD02031D03
:10295200AB2CAC2C8F2C7B08F9007A08F80008000D
:102962008316031307138717831203132908F3002F
:102972002808F2002708F1002608F0000030F700CE
:102982007A30F6001230F5000030F4000A168A118F
:10299200C1260A168A117308FC007208FB0071082E
:1029A200FA007008F9000030F3000030F200003045
:1029B200F1004030F0007C08F7007B08F6007A084E
:1029C200F5007908F4000A168A11C1260A168A113E
:1029D2007008FF3E83160313990020309800903050
:1029E2008312031398000800F501F60170087104C0
:1029F2000319FC2CFD2C342DF701F70A0B2D0130A5
:102A02000310F00DF10DFF3E031D012D0130F40006
:102A12007408F707F11F0E2D0F2D002D0130031042
:102A2200F50DF60DFF3E031D102D71087302031DF7
:102A32001C2D70087202031C1F2D202D272D7008DB
:102A4200F2027108031CF303F30275140130031040
:102A5200F10CF00CFF3E031D282D0130F702031D7F
:102A6200332D342D0F2D7608F1007508F000080083
:102A720000307005F80000307105F90080307205F1
:102A8200FA007F307305FB007B087A04790478042E
:102A9200031D4C2D4D2D552D0030F3000030F2005A
:102AA2000030F1000030F00000307405F800003012
:102AB2007505F90080307605FA007F307705FB0056
:102AC2007B087A0479047804031D682D692D712D21
:102AD2000030F7000030F6000030F5000030F4005E
:102AE20077087306031D7F2D76087206031D7F2D5E
:102AF20075087106031D7F2D740870060319822D57
:102B0200832D852D0310862D031408008030831633
:102B12000313A306270883120313DC00831603138F
:102B2200260883120313DB0083160313250883127E
:102B32000313DA0083160313240883120313D90044
:102B420083160313230883120313E000831603136F
:102B5200220883120313DF00831603132108831252
:102B62000313DE0083160313200883120313DD0010
:102B72000A128A15A8250A168A11831203135C0801
:102B820083160313A300831203135B088316031334
:102B9200A200831203135A0883160313A10083129F
:102BA2000313590883160313A000080083120313AA
:102BB2002308F3002208F2002108F1002008F000A7
:102BC2000030F7000030F6000030F5000030F4006D
:102BD2000A168A1139250A168A11031CF12DF22DC3
:102BE200032E831203132408840083138001840AB2
:102BF20080010030A3000030A2000030A1000030AC
:102C0200A000322E8312031323087F39FC00FD013A
:102C12000310FC0DFD0D240884007C088313800042
:102C2200840A7D088000220D220D0139FC00FD017D
:102C3200240884007C088004840A7D088004240817
:102C4200840082308007840F00080318000AFF0006
:102C5200FF307F0780008403230880393F38A300B8
:102C6200A21308000310831603132A0D2B0D8312DF
:102C72000313EE006E08031D3F2E402E4B2E003034
:102C820083160313AB000030AA000030A900003005
:102C9200A800C02E831603132808AC002908AD0033
:102CA2002A08AE002B08AF001F300310AF0CAE0C89
:102CB200AD0CAC0CFF3E031D562E2C0883120313E1
:102CC200ED0083160313AA17FF30A805FF30A905EC
:102CD200FF30AA050030AB05963083120313EE02D3
:102CE200EE1F742E752E932E6E08803A973E0318AF
:102CF2007B2E7C2E7D2E402E013003108316031373
:102D0200AB0CAA0CA90CA80CFF3E031D7E2E0130B1
:102D1200AC002C0883120313EE07031D912E922E92
:102D22007D2EAE2E20306E02031C982E992EA92ED7
:102D3200402E013083160313AC000310A80DA90D19
:102D4200AA0DAB0DAC0B9E2E013083120313EE02C3
:102D52006E08031DAD2EAE2E9A2E6D080319B22EEB
:102D6200B32EC02E83160313A809A909AA09AB0919
:102D7200A80A0319A90A0319AA0A0319AB0A080027
:102D820083120313A101F31FC72EC82ED52EF009FB
:102D9200F109F209F309F00A0319F10A0319F20A17
:102DA2000319F30AA101A10AF71FD82ED92EE82E82
:102DB200F409F509F609F709F40A0319F50A0319E2
:102DC200F60A0319F70A0130F8007808A106003064
:102DD200A5000030A4000030A3000030A200730858
:102DE2007204710470040319F72EF82E452FA00106
:102DF200A00A082F0130F8000310F00DF10DF20DBA
:102E0200F30DF80BFD2E0130F8007808A007F31F30
:102E12000B2F0C2FFB2E0130F8000310A20DA30D77
:102E2200A40DA50DF80B0E2F73087702031D232F97
:102E320072087602031D232F71087502031D232FCA
:102E420070087402031C262F272F362F7008F402F5
:102E52007108031C710FF5027208031C720FF6024F
:102E62007308031C730FF702221401300310F30CD2
:102E7200F20CF10CF00CFF3E031D372F0130A002C3
:102E8200031D442F452F0C2F21080319492F4A2FC8
:102E9200552FA209A309A409A509A20A0319A30A85
:102EA2000319A40A0319A50A2508F3002408F2004D
:102EB2002308F1002208F000080000307005F80035
:102EC20000307105F90080307205FA007F30730519
:102ED200FB007B087A0479047804031D712F722F9A
:102EE2007A2F0030F3000030F2000030F1000030A1
:102EF200F00000307405F80000307505F9008030EC
:102F02007605FA007F307705FB007B087A047904A6
:102F12007804031D8D2F8E2F962F0030F70000307E
:102F2200F6000030F5000030F400F31F992F9A2FBD
:102F3200BE2F0030F8000030F9000030FA00803077
:102F4200FB007008F8027108031C710FA92FAA2F49
:102F5200F9027208031C720FAF2FB02FFA02730826
:102F6200031C730FB52FB62FFB027B08F3007A0800
:102F7200F2007908F1007808F000F71FC12FC22F84
:102F8200E62F0030F8000030F9000030FA008030FF
:102F9200FB007408F8027508031C750FD12FD22F9D
:102FA200F9027608031C760FD72FD82FFA0277087A
:102FB200031C770FDD2FDE2FFB027B08F7007A0858
:102FC200F6007908F5007808F4008030F3068030C6
:102FD200F70677087302031DF82F76087202031DA5
:102FE200F82F75087102031DF82F74087002031878
:0E2FF200FB2FFC2FFE2F0310FF2F03140800EF
:04400E00D520FF3F7B
:00000001FF
