:020000040000FA
:100000000128831203138501880183168501880165
:100010000317880183120313061406180D283320D2
:1000200006180D281328A40A013088001630A300F2
:10003000880D3320A30B18281630A300880C33201A
:10004000A30B1E28F03088001630A300880E332042
:10005000A30B2628CC3088001630A300880E880C0D
:100060003320A30B2E284030A0004030A100A10B6C
:080070003728A00B3528080019
:04007800003400341C
:02400E00D528B3
:02401000FF3F70
:00000001FF
